:020000040800F2
:1000000000000220ED1E0008391600083B1600080B
:100010003D1600083F1600084116000800000000C9
:10002000000000000000000000000000431600086F
:100030004516000800000000471600084916000891
:100040003D1F00083D1F00083D1F00083D1F000820
:100050003D1F00083D1F00083D1F00083D1F000810
:100060003D1F00083D1F00083D1F00083D1F000800
:100070003D1F00083D1F00083D1F00083D1F0008F0
:100080003D1F00083D1F00083D1F00080000000044
:100090000000000000000000000000003D1F0008FC
:1000A0003D1F00083D1F00083D1F00083D1F0008C0
:1000B0003D1F00083D1F00083D1F00083D1F0008B0
:1000C0003D1F00083D1F00083D1F00083D1F0008A0
:1000D0003D1F00083D1F00083D1F000800000000F4
:1000E0003D1F00083D1F00083D1F000800000000E4
:1000F0000000000000000000000000003D1F00089C
:10010000000000003D1F00083D1F00083D1F0008C3
:1001100000000000000000000000000000000000DF
:100120003D1F00083D1F00083D1F00083D1F00083F
:100130003D1F00080000000000000000000000005B
:100140000000000000000000000000003D1F00084B
:100150003D1F00083D1F00083D1F00083D1F00080F
:100160003D1F00083D1F00080000000000000000C7
:10017000000000000000000000000000000000007F
:10018000000000003D1F000800000000000000000B
:080190003D1F00083D1F00089F
:100198000348044B834202D0034B03B1184770470E
:1001A8000C0000200C000020000000000548064B51
:1001B8001B1AD90F01EBA301491002D0034B03B15D
:1001C800184770470C0000200C00002000000000B9
:1001D80010B5064C237843B9FFF7DAFF044B13B187
:1001E8000448AFF300800123237010BD0C000020E9
:1001F80000000000401F000808B5044B1BB104496B
:100208000448AFF30080BDE80840CFE700000000D5
:1002180010000020401F000870B50D4E0D4D761BD4
:10022800B61006D0002455F8043B01349847A6427E
:10023800F9D1094E094D761B01F07EFEB61006D0A5
:10024800002455F8043B01349847A642F9D170BD03
:100258005C2000085C200008602000085C20000882
:10026800830730B548D0541E002A3FD0CAB203468F
:1002780001E0013C3AD303F8012B9D07F9D1032C87
:100288002DD9CDB245EA05250F2C45EA054536D9C5
:10029800A4F1100222F00F0C03F1200EE6444FEAFD
:1002A800121C03F1100242E9045542E902551032CA
:1002B8007245F8D10CF1010214F00C0F03EB021295
:1002C80004F00F0C13D0ACF1040323F00303043340
:1002D800134442F8045B9342FBD10CF003042CB1A5
:1002E800CAB21C4403F8012B9C42FBD130BD6446C2
:1002F8001346002CF4D1F9E703461446BFE71A4623
:10030800A446E0E753B94AB9002908BF00281CBF32
:100318004FF0FF314FF0FF3001F0EEB8ADF1080CAF
:100328006DE904CE00F006F8DDF804E0DDE902230B
:1003380004B070472DE9F047089D0C46002B4ED1BC
:1003480094468C458646B2FA82F262D94AB1C2F125
:100358002003914020FA03F30CFA02FC194300FA37
:1003680002FE4FEA1C471FFA8CF6B1FBF7F44FEA7E
:100378001E4307FB141143EA014304FB06F19942AB
:100388000AD91CEB030304F1FF3080F01381994272
:1003980040F21081023C6344591A1FFA8EF3B1FBF4
:1003A800F7F007FB101143EA014300FB06F69E42F3
:1003B8000AD91CEB030300F1FF3180F0FD809E4257
:1003C80040F2FA80634402389B1B40EA0440002153
:1003D8001DB1D3400022C5E90032BDE8F0878B4249
:1003E80005D90DB1C5E9000100210846F5E7B3FAC2
:1003F80083F1002946D1A34202D39042C0F0F18094
:10040800861A64EB03030120002DE6D0C5E90063DA
:10041800E3E7002A40F09180A1EB0C044FEA1C4866
:100428001FFA8CF70121B4FBF8F64FEA1E4308FBCC
:10043800164443EA044307FB06F0984208D91CEB2C
:10044800030306F1FF3402D2984200F2CE8026461A
:100458001C1A1FFA8EF3B4FBF8F008FB104443EAA9
:10046800044300FB07F79F4208D91CEB030300F184
:10047800FF3402D29F4200F2B1802046DB1B40EAE3
:100488000640A5E7C1F120068B4022FA06F71F4374
:1004980020FA06FC04FA01F343EA0C03F44000FADC
:1004A80001F8380C4FEA1349B4FBF0FE1FFA87FC39
:1004B80000FB1E4449EA04440EFB0CF9A14502FA6C
:1004C80001F20AD93C190EF1FF3A80F08580A14566
:1004D80040F28280AEF1020E3C44A4EB09041FFAFC
:1004E80083F9B4FBF0F300FB134449EA044403FB2B
:1004F8000CFCA44507D93C1903F1FF3068D2A44588
:1005080066D9023B3C4443EA0E40A0FB0293A4EBAD
:100518000C049C42CE469C4652D34FD055B1B8EB02
:100528000E0364EB0C0404FA06F6CB40CC401E43E1
:10053800C5E900640021BDE8F087C2F1200320FA74
:1005480003F10CFA02FC24FA03F394400C434FEA3B
:100558001C4800FA02FE1FFA8CF7B3FBF8F008FB00
:100568001031230C43EA014300FB07F1994208D9F3
:100578001CEB030300F1FF362CD299422AD902382A
:1005880063445B1AA4B2B3FBF8F108FB113344EAE5
:10059800034401FB07F3A34208D91CEB040401F14F
:1005A800FF3613D2A34211D902396444E41A41EA4E
:1005B800004138E70446EFE6084605E7C845ADD2EE
:1005C800B9EB020E63EB070C0138A7E73146EDE7FC
:1005D800034698E73046D4E7D6467EE763440238B8
:1005E8004CE70646234608460EE7023E63442FE7DB
:1005F80003685A004CBF43F0004323F000431844FB
:10060800704700BF2DE9F84349B34F1E044615460D
:100618003E464FF0000909EB060101EBD171491084
:1006280004EBC1084046FFF7E3FF8F4203464FEA59
:10063800C1000FD00830AB42204407D8FFF7D8FFDD
:100648000138A84208D201F10109E4E7894506D03A
:100658004E1EE0E7AB42F9D84046BDE8F8834FF0BC
:1006680000084046BDE8F883012807D0022807D0D3
:10067800044B00280CBF18460020704702487047FA
:1006880002487047290D00082D0D0008310D00089B
:1006980030B5214B83B004468D1E1BB301A92846F3
:1006A800AFF3008088B301992A46FFF7ABFF0146F4
:1006B80058B3FFF79DFF4B68A064012B28D0002B8F
:1006C80001F104001FDBFFF793FF00232365036894
:1006D800E064002B0DDBFFF78BFF0346002023614E
:1006E80003B030BD0D4B0E49C91AC9101846019107
:1006F800DAE7C3F30360FFF7B7FF034628B100202A
:10070800236103B030BD0123E0E700230920E6E7B9
:1007180000230520E3E700BF000000008C1F00084D
:100728005C2000080368DA0710B5044606D49B0766
:1007380000F1480009D500F061FC2368590709D584
:100748001A070ED5DB0613D510BD00F04FFC236841
:100758005907F5D404F1D00000F058FC23681A07B3
:10076800F0D404F5A87000F059FC2368DB06EBD43C
:1007780004F5E870BDE8104000F094BC092070470B
:100788000346006800B11844704700BF704700BFB7
:1007980070B504460E46316C2046FFF779FF0546D2
:1007A80088B9326C62612369324621460120984734
:1007B8000828F0D0072806D12846316CFFF7E6FF55
:1007C800301D00F007FCFFDE2DE9F0470D1DD0F8C5
:1007D8000C80D0F81890074614460FCDADF5727D01
:1007E8000DF10C0CACE80F000FCDACE80F000FCDED
:1007F800ACE80F0095E80F0002AE4FF0000E8CE851
:100808000F00C6F800E020E0336C7B614FF4F07213
:1008180031467AA800F072FE3B697AAA39465046FA
:100828009847889B73642146CDE9006905463B4695
:100838003A460120C047044618BB4FF4F0727AA923
:10084800304600F05BFE082D19D1316C3846FFF7B1
:100858001FFF09345FFA84FA05460028D4D0B36B29
:1008680073643A46CDE900693B464AF0100101201D
:10087800C04730B928460DF5727DBDE8F087072DD1
:1008880005D0092528460DF5727DBDE8F08720467C
:10089800316CFFF77BFF03A800F09CFB406C7047AE
:1008A800F0B5CB6B0B6401F1040C0E460546BCE8B1
:1008B8000F00F9B001AC0FC4BCE80F000FC4BCE8CE
:1008C8000F000FC49CE80F004FF0FF3784E80F00BB
:1008D800009706E02B696A46294698470828044687
:1008E80008D110992846FFF7D3FE0028F2D0092036
:1008F80079B0F0BD6846FFF715FF062CF7D13146F1
:100908002846FFF745FF00BFC160D96B82611964B3
:100918000022194658E700BF70B5C66843690B64E2
:10092800AEB903690A4604460D46014602209847B7
:10093800072805D008280ED129462046FFF728FFAA
:100948003046296CFFF722FF281D00F043FB0122E7
:10095800FFF73AFFFFDEFFDEC2681AB1CA6B0A640E
:10096800002231E79CE700BF704700BF836801465B
:100978000BB1012018477047012910D009D883B955
:100988000F2A0ED800EB820218465368009A1360AB
:100998007047033901298CBF02200120704708469F
:1009A80070470220704700BF00B585B00A46002393
:1009B80003A900911946FFF7DFFF039805B05DF81A
:1009C80004FB00BF012910D009D883B90F2A0ED81B
:1009D800009900EB82020968516018467047033994
:1009E80001298CBF02200120704708467047022069
:1009F800704700BF10B584B0002303AC0392009485
:100A08000A461946FFF7DEFF04B010BD70B5D36B78
:100A1800136402F1040C05460C46BCE80F00ADF562
:100A28000E7D0DF15C0EAEE80F00BCE80F00AEE8DD
:100A38000F00BCE80F00AEE80F009CE80F004FF075
:100A4800FF368EE80F00169610E0FFF7D3FF214619
:100A580016A8A847034616AA6946082083B9049B26
:100A68009847052806460CD0092809D026996846D3
:100A7800FFF70EFE03466A460C2116A8002BE4D0A9
:100A8800092616A8FFF74EFE30460DF50E7D70BDFF
:100A98002DE9F04F9346CA6C89B00D4652F8041BF5
:100AA800069200F0030C002B79D00C0C8DF81D4039
:100AB8000904E4B2059102EB840202212F6D8DF83E
:100AC8001C10BCF1020F08BFAA6B17F001070CD06D
:100AD80005A9584600F080FB18B9082009B0BDE800
:100AE800F08F092009B0BDE8F08F1668002EEFD00E
:100AF80000F008010191B146029764469A46BAF19E
:100B0800020F48D0B2F80090568802F10408AA6C87
:100B180026F001030F2158469F18FFF745FF87422B
:100B280037D829F001023A44824294BF00220122B8
:100B3800730003F0020309F0010943EA0903012BDA
:100B480047D0022B31D0002BCBD114B1002A40F072
:100B5800C68008F10402D2F80090B9F1000FCED196
:100B680005A95846029F00F037FB0028B9D1002F8D
:100B7800B3D00F215846FFF717FF0E2102465846FB
:100B8800FFF738FF654A0F215846FFF733FF072064
:100B9800A8E70022CCE7566802F10808B7E709027F
:100BA80005918DF81D30032188E7D8F8006026F0FC
:100BB8000043002C44D122B1019A002A5AD0002BBC
:100BC80058D0002E01DA08F10408013308EB83023B
:100BD800C1E7ECB9CAB1D8F80430D8F80020991C9C
:100BE8004FEAD2723FF47DAF05F158010133049109
:100BF80000F0888008F10400FFF7C2FD04AB01464D
:100C08002846AFF30080002856D108F10802A2E771
:100C18000D215846FFF7C8FE2B6A8342F5D1AB6A0F
:100C28009845F2D14046FFF7E3FC0F2102465846AB
:100C3800FFF7E0FE2A4600215846FFF7DBFEA6E74D
:100C48000D2158460393FFF7AFFE2A6A039B8242A1
:100C5800B7D1AA6A9045B4D100270422C5E90B721E
:100C68004244AB626A63D8F80020BA4252DB0122E0
:100C78000292AAE7039408F10409002605F158072F
:100C88001C460DE048460497FFF77AFD002201460E
:100C980004AB2846013609F10409AFF30080C8B94E
:100CA800A642EFD10D215846FFF77EFE049B28622D
:100CB800C5E90938062015E704460D215846FFF70F
:100CC80073FE022CDDF81090286221D12B4643F8E0
:100CD8002C9FEDE72346D8F80060039C71E7404657
:100CE800FFF786FC08F104020446AA632846AFF31E
:100CF800008000283FF4F5AE22460F215846FFF742
:100D080079FE44E7894658460D21FFF74DFE2862D3
:100D18004B46CDE7581C08EB800084E70000000034
:100D28000023B5E60123B3E60223B1E62DE9F0433B
:100D38000646C3B015461C46042900F2D180DFE8F8
:100D480001F0AC51CF2A0300002C40F0C980102AD2
:100D580000F2C6800368DC0600F1E78020AF384661
:100D680000F0AAF9B46B394600234FF0010C0CFAD5
:100D780003F22A42204603F1010303D050F8042B62
:100D88000A600446042B01F10401F0D1B46338462B
:100D980000F088F999E0032C40F0A28094B204EBAB
:100DA8001243102B4FEA124500F29A8003681F077E
:100DB80000F1C38020AF384600F052F9B26B07EB60
:100DC800C50154B10B46D01A01EBC401E4001D580B
:100DD80043F8045B8B42FAD12244B263384600F0F0
:100DE8001DF972E0012C4FEA124895B271D0052C1A
:100DF80076D108EB0509B9F1200F71D8B8F10F0FBA
:100E080072D8B9F1100F036800F29F80D90708D58E
:100E180023F00103304643F0020340F8483B00F05A
:100E2800F1F820AF384600F0EDF8B36B002D00F074
:100E3800B9806D006A1E07EBC8010025013204392C
:100E480003EB820253F8040B41F8040F9342F9D1E3
:100E5800002D00F0A1804146102938BF10216B00F9
:100E680010396F46013B07EBC1010133043902EB2E
:100E7800830352F8040B41F8040F9A42F9D1012C6C
:100E880000F08880B8F10F0FB26302D820A800F0F4
:100E9800B5F8384600F0BAF817E00CBB806B23466B
:100EA8001FFA82FC0124371D04FA03F111EA0C0F22
:100EB800024604D052F8041B47F8231010460133A9
:100EC800102BF1D1AC0400D4B063002043B0BDE8CE
:100ED800F08308EB0503102B02D8B8F1100F14D1DA
:100EE800022043B0BDE8F083002DEED003685A0716
:100EF8005CD46F46384600F08DF8B26B6B00A8F1F1
:100F08001001013B07EBC101AFE70368DA0759D4C9
:100F180020AF384600F06EF8B36B002D89D104334A
:100F2800B363384600F062F8CFE723F0100303609C
:100F380000F5E87000F0C0F810E723F0080303603C
:100F480000F5A87000F08CF834E7D90708D523F02D
:100F5800010343F0020340F8483B00F053F83368BC
:100F6800580706D5304623F0040340F8D03B00F07C
:100F780051F820AF384600F045F8684600F04AF8C6
:100F8800C8F110025200B36BA9F11005013A07EB42
:100F9800C80153E720AFC2E7012CC0D0B8F10F0F4A
:100FA800B36392D8384600F029F88EE723F004039B
:100FB80040F8D03B6F4600F02DF8384600F02AF88C
:100FC800B26B9BE7304623F0030340F8483B00F040
:100FD80011F89DE700F1340191E838009C46A646D7
:100FE8004CF8045D90E8FF0FE54600BD90EC210B3E
:100FF800704700BF80EC210B704700BF90EC200BBE
:10100800704700BF80EC200B704700BFD0EC200B6E
:10101800704700BFC0EC200B704700BFF0EC020126
:10102800F0EC0211F0EC0221F0EC0231F0EC02419C
:10103800F0EC0251F0EC0261F0EC0271F0EC02818C
:10104800F0EC0291F0EC02A1F0EC02B1F0EC02C17C
:10105800F0EC02D1F0EC02E1F0EC02F1704700BFD5
:10106800E0EC0201E0EC0211E0EC0221E0EC0231DC
:10107800E0EC0241E0EC0251E0EC0261E0EC0271CC
:10108800E0EC0281E0EC0291E0EC02A1E0EC02B1BC
:10109800E0EC02C1E0EC02D1E0EC02E1E0EC02F1AC
:1010A800704700BFB0FC0181B0FC0191B0FC01A108
:1010B800B0FC01B1704700BFA0FC0181A0FC019108
:1010C800A0FC01A1A0FC01B1704700BFEC4600B52F
:1010D8002DE900502DE9FF1F4FF000032DE90C000A
:1010E80001A9FFF7DDFBDDF840E012B0704700BF53
:1010F800EC4600B52DE900502DE9FF1F4FF0000325
:101108002DE90C0001A9FFF707FCDDF840E012B05B
:10111800704700BFEC4600B52DE900502DE9FF1FD0
:101128004FF000032DE90C0001A9FFF715FCDDF8CD
:1011380040E012B0704700BFEC4600B52DE9005002
:101148002DE9FF1F4FF000032DE90C0001ABFFF75D
:10115800DBFBDDF840E012B0704700BFEC4600B59D
:101168002DE900502DE9FF1F4FF000032DE90C0079
:1011780001AAFFF74BFCDDF840E012B0704700BF52
:10118800027A03467AB9427AA2B14168013A10B4A8
:101198004272086803220C1D1A7202025C60000E7B
:1011A80010BC1A6070470068013A1A7202021A608D
:1011B800000E7047B020704700B585B0002303AA21
:1011C800009219460C22FFF7D7FB039805B05DF88B
:1011D80004FB00BFF0E700BF2DE9F043064685B0E9
:1011E8000D464FF000082846FFF7CAFFB02804460E
:1011F80000F0DA80070646D500F0F003802B5ED0B9
:10120800B02B73D01BD8902B00F09B80A02B12D151
:10121800C34303F007034FF47F621A41010702F446
:101228007F6201D542F48042002319463046FFF719
:101238007DFD0028D7D0092005B0BDE8F083C02B7C
:101248006DD1C62800F09380C72800F0B28000F066
:10125800F803C02B00F0D280C82800F0DD80C92830
:10126800E9D12846FFF78CFF020300F00F0002F4D3
:10127800702201300243012105233046FFF756FD55
:101288000028B0D0D7E78300DBB21F1D0DF10C0991
:1012980000231946CDF800900D223046FFF76CFB6D
:1012A800039BCDF8009060064CBFDF1BFF1800239E
:1012B8000D22194630460397FFF784FB93E728462B
:1012C800FFF75EFF24022043B0F5004FB3D00401BE
:1012D8000023A2B219463046FFF728FD0028AAD1FC
:1012E80014F4004F18BF4FF001087CE7B12851D023
:1012F800B22800F0AD80B3286DD000F0FC03B42B09
:1013080099D000F007020132012342F40022194665
:101318003046FFF70BFD00283FF465AF8BE700F080
:10132800F803D02B87D100F007020132052342F4DD
:10133800002201213046FFF7F9FC00283FF453AFA3
:1013480079E700F00D030D2B3FF475AF03AF0023D1
:1013580000F00F02194600973046FFF70DFB0023F7
:1013680000970D2219463046FFF72CFB3BE728462D
:10137800FFF706FF020300F00F00013002F47022AD
:101388000323024319463046FFF7D0FC00283FF4F8
:101398002AAF50E72846FFF7F3FE431EDBB20E2BB9
:1013A80002467FF641AF46E7B8F1000F40D0002073
:1013B80042E72846FFF7E4FE431EDBB20E2B024647
:1013C8003FF639AF002304213046FFF7AFFC002871
:1013D8003FF409AF2FE72846FFF7D2FE020300F0DB
:1013E8000F00013002F470220123024319463046EF
:1013F800FFF79CFC00283FF4F6AE1CE700F00F0254
:101408000132032342F4202219463046FFF78EFCAE
:1014180000283FF4E8AE0EE72846FFF7B1FE00F0DB
:10142800F00200F00F031032013343EA023222E7E0
:1014380003AC434641460E2200943046FFF79CFA1F
:10144800009443460F2241463046FFF7BBFAAEE709
:1014580000230DF10C090D221946CDF800903046F5
:10146800FFF78AFA2846FFF78BFE0206039C4FF027
:1014780002070BD500F07F00B840044428460394C7
:10148800FFF77EFE030607F10707F3D400FA07F219
:1014980004F50174224400230392CDF800900D2234
:1014A80019463046FFF78EFA9DE600BF10B5C26CAC
:1014B800536884B04FF0030C08321C0208461B0E18
:1014C80001A9019402928DF80CC08DF80D30FFF738
:1014D80083FE04B010BD00BF08B5FFF77BFE806C2B
:1014E80008BD00BF08B5FFF775FEC06CC3790233AD
:1014F80000EB830008BD00BF704700BF844641EA87
:10150800000313F003036DD1403A41D351F8043B73
:1015180040F8043B51F8043B40F8043B51F8043BC5
:1015280040F8043B51F8043B40F8043B51F8043BB5
:1015380040F8043B51F8043B40F8043B51F8043BA5
:1015480040F8043B51F8043B40F8043B51F8043B95
:1015580040F8043B51F8043B40F8043B51F8043B85
:1015680040F8043B51F8043B40F8043B51F8043B75
:1015780040F8043B51F8043B40F8043B51F8043B65
:1015880040F8043B51F8043B40F8043B403ABDD2D4
:10159800303211D351F8043B40F8043B51F8043B76
:1015A80040F8043B51F8043B40F8043B51F8043B35
:1015B80040F8043B103AEDD20C3205D351F8043B05
:1015C80040F8043B043AF9D2043208D0D2071CBFD1
:1015D80011F8013B00F8013B01D30B8803806046FA
:1015E800704700BF082A13D38B078DD010F0030370
:1015F8008AD0C3F10403D21ADB071CBF11F8013BE0
:1016080000F8013B80D331F8023B20F8023B7BE72E
:10161800043AD9D3013A11F8013B00F8013BF9D259
:101628000B7803704B7843708B78837060467047F3
:10163800FEE7FEE7FEE7FEE7FEE770477047704704
:1016480008B500F0C7FB08BD82B0002100910B4B24
:101658005A6C42F480425A645A6C02F480420092F6
:10166800009A01911A6C42F080521A641B6C03F0C4
:1016780080530193019B02B0704700BF00380240BD
:10168800002800F0E08170B582B00446036813F0CA
:10169800010F3BD09F4B9B6803F00C03042B2CD00D
:1016A8009C4B9B6803F00C03082B21D06368B3F5AF
:1016B800803F4FD0B3F5A02F52D0964B1A6822F432
:1016C80080321A601A6822F480221A606368002B3C
:1016D80050D000F08BFB05468E4B1B6813F4003F7F
:1016E80014D100F083FB401B6428F5D90320B1E135
:1016F800884B5B6813F4800FD8D0864B1B6813F4B3
:10170800003F03D06368002B00F09F81236813F02B
:10171800020F54D07F4B9B6813F00C0F3ED07D4BCB
:101728009B6803F00C03082B33D0E368002B68D0C8
:10173800794B01221A6000F059FB0546754B1B686E
:1017480013F0020F54D100F051FB401B0228F5D9C9
:1017580003207FE16F4A136843F480331360B5E7D1
:101768006C4B1A6842F480221A601A6842F480327C
:101778001A60ABE700F03AFB0546664B1B6813F4AA
:10178800003FC3D000F032FB401B6428F5D903208A
:1017980060E1604B5B6813F4800FC6D15D4B1B683A
:1017A80013F0020F03D0E368012B40F05081594A2F
:1017B800136823F0F803216943EAC103136023681F
:1017C80013F0080F42D063696BB3534B0122C3F87F
:1017D800802E00F00BFB05464E4B5B6F13F0020F9B
:1017E80034D100F003FB401B0228F5D9032031E176
:1017F800484A136823F0F803216943EAC1031360D8
:10180800DDE7454B00221A6000F0F0FA0546414B2F
:101818001B6813F0020FD2D000F0E8FA401B022830
:10182800F5D9032016E13C4B0022C3F8802E00F0C6
:10183800DDFA0546374B5B6F13F0020F06D000F058
:10184800D5FA401B0228F5D9032003E1236813F0D9
:10185800040F77D02F4B1B6C13F0805F33D100231C
:1018680001932C4B1A6C42F080521A641B6C03F0E3
:1018780080530193019B0125284B1B6813F4807F3B
:1018880023D0A368012B34D0052B38D0214B1A6FF5
:1018980022F001021A671A6F22F004021A67A3687D
:1018A800002B3DD000F0A2FA06461A4B1B6F13F02E
:1018B800020F46D100F09AFA801B41F28833984211
:1018C800F3D90320C6E00025D6E7144A136843F489
:1018D8008073136000F08AFA0646104B1B6813F4F5
:1018E800807FCED100F082FA801B0228F5D9032030
:1018F800B0E0084A136F43F001031367CFE7054BC5
:101908001A6F42F004021A671A6F42F001021A674E
:10191800C5E700BF003802400000474200700040A1
:1019280000F064FA0646524B1B6F13F0020F08D002
:1019380000F05CFA801B41F288339842F3D9032007
:1019480088E0EDB9A369002B00F08380484A9268CB
:1019580002F00C02082A51D0022B17D0454B002266
:101968001A6600F043FA0446414B1B6813F0007FE7
:1019780042D000F03BFA001B0228F5D9032069E0A9
:101988003B4A136C23F080531364DBE7394B002286
:101998001A6600F02BFA0546354B1B6813F0007FDA
:1019A80006D000F023FA401B0228F5D9032051E0A5
:1019B800E369226A1343626A43EA8213A26A5208FD
:1019C800013A43EA0243E26A43EA0263284A53605F
:1019D800284B01221A6600F009FA0446244B1B68BA
:1019E80013F0007F06D100F001FA001B0228F5D998
:1019F80003202FE000202DE000202BE0012B2BD02E
:101A08001B4B5B6803F48001E269914226D103F025
:101A18003F02216A8A4223D1616A47F6C0721A409E
:101A2800B2EB811F1ED103F44031A26A5208013A79
:101A3800B1EB024F18D103F07063E26AB3EB026FA7
:101A480014D1002006E001207047012002E00120A7
:101A580000E0002002B070BD0120FBE70120F9E79B
:101A68000120F7E70120F5E70120F3E70120F1E77E
:101A7800003802400000474208B5264B9B6803F037
:101A88000C03042B41D0082B41D1224B5A6802F099
:101A98003F025B6813F4800F12D01E4B5968C1F3E4
:101AA80088111D480023A1FB0001FEF72BFC194BF0
:101AB8005B68C3F3014301335B00B0FBF3F027E03D
:101AC800144B5868C0F388104FEA401CBCEB000C5C
:101AD8006EEB0E0E4FEA8E1343EA9C634FEA8C11AD
:101AE800B1EB0C0163EB0E03DB0043EA5173C90051
:101AF80011EB000C43F10003990200234FEA8C20FC
:101B080041EA9C51FEF7FEFBD1E7034800E0034899
:101B180008BD00BF0038024040787D010024F40071
:101B2800002800F09B8070B50D4604464F4B1B689B
:101B380003F007038B4208D2CBB24C4A13701368E8
:101B480003F007038B4240F08B80236813F0020FE9
:101B580017D013F0040F04D0454A936843F4E053B8
:101B68009360236813F0080F04D0414A936843F444
:101B7800604393603E4A936823F0F003A1680B43E7
:101B88009360236813F0010F32D06368012B21D0D2
:101B98009A1E012A25D9364A126812F0020F61D01E
:101BA80033498A6822F0030213438B6000F01EF960
:101BB80006462F4B9B6803F00C036268B3EB820F59
:101BC80016D000F013F9801B41F288339842F0D9FF
:101BD800032042E0264A126812F4003FE0D10120B7
:101BE8003BE0234A126812F0007FD9D1012034E08B
:101BF8001E4B1B6803F00703AB4207D9EAB21B4B25
:101C08001A701B6803F00703AB422DD1236813F049
:101C1800040F06D0164A936823F4E053E1680B4397
:101C28009360236813F0080F07D0114A936823F4D0
:101C38006043216943EAC1039360FFF71DFF0C4B22
:101C48009B68C3F303130B4AD35CD8400A4B186054
:101C58000A4B186800F07EF8002070BD012070471C
:101C68000120FAE70120F8E70120F6E7003C0240EE
:101C780000380240581F0008080000200400002017
:101C8800002808DB0901C9B200F1604000F5614095
:101C980080F80013704700F00F000901C9B2014B2A
:101CA8001954704714ED00E000B500F00700C0F1CA
:101CB800070CBCF1040F28BF4FF0040C031D062BC2
:101CC8000FD9C31E4FF0FF3E0EFA0CF021EA0001B7
:101CD80099400EFA03FE22EA0E0241EA02005DF87C
:101CE80004FB0023EEE70000074AD36823F4E0630F
:101CF8001B041B0C000200F4E060034343F0BF63C5
:101D080043F40033D360704700ED00E010B504469B
:101D1800054BD868C0F30220FFF7C6FF01462046EE
:101D2800FFF7AEFF10BD00BF00ED00E00138B0F1D5
:101D3800807F0BD24FF0E0235861054AF02182F8EA
:101D480023100020986107221A617047012070470C
:101D580000ED00E010B504460E4B1A784FF47A7384
:101D6800B3FBF2F30C4A1068B0FBF3F0FFF7DEFFA9
:101D780068B90F2C01D901200AE0002221464FF052
:101D8800FF30FFF7C3FF054B1C60002000E0012077
:101D980010BD00BF00000020080000200400002043
:101DA80008B50B4B1A6842F400721A601A6842F4BC
:101DB80080621A601A6842F480721A600320FFF782
:101DC80093FF0F20FFF7C6FFFFF73EFC002008BD7A
:101DD800003C0240034A1168034B1B780B44136014
:101DE800704700BF2800002000000020014B186841
:101DF800704700BF28000020034AD2F8883043F417
:101E08007003C2F88830704700ED00E082B000230C
:101E18000193064B1A6B42F080021A631B6B03F0A6
:101E280080030193019B02B0704700BF0038024055
:101E380072B6FEE700B595B03022002108A8FEF77B
:101E48000FFA0023039304930593069307930193D2
:101E58001E4A116C41F080511164126C02F08052DC
:101E68000192019A02931A4A116841F440411160A3
:101E7800126802F440420292029A02220892012158
:101E88000B9110210C910E920F930823109360234D
:101E9800119312920423139308A8FFF7F1FB88B952
:101EA8000F23039302230493002305934FF48052D6
:101EB80006920793032103A8FFF732FE20B915B055
:101EC8005DF804FBFFF7B4FFFFF7B2FF00380240EC
:101ED8000070004008B5FFF763FFFFF7ABFFFFF79F
:101EE80095FFFEE7DFF834D00D480E490E4A00236F
:101EF80002E0D458C4500433C4188C42F9D30B4AB6
:101F08000B4C002301E013600432A242FBD3FFF71D
:101F180073FFFEF781F9FFF7DDFF7047000002202D
:101F2800000000200C000020642000080C000020A5
:101F38002C000020FEE70000F8B500BFF8BC08BC84
:101F48009E467047F8B500BFF8BC08BC9E4670476F
:101F58000000000000000000010203040607080951
:101F680008B10181B0B000840000000008B101810F
:101F7800B0B000840000000008B10181B0B0008456
:041F88000000000055
:101F8C00B0E3FF7F0100000004E7FF7FB0A90280EF
:101F9C0090E7FF7FB0B0A880E0E7FF7F0100000072
:101FAC00ECE7FF7FB0B0AA801CE8FF7FAE71B28077
:101FBC00E8E8FF7F01000000E4E8FF7FAB3F3880DA
:101FCC0044E9FF7F010000004CE9FF7FB0B0AA801C
:101FDC0084E9FF7F0100000030EAFF7FAA0DB28088
:101FEC00ACEAFF7FB0AF088034EDFF7F010000004A
:101FFC0038EDFF7FAD3F0280D8EFFF7F010000007E
:10200C00B4F1FF7F00840480C8F1FF7F0100000061
:10201C00C4F1FF7FB0AD048090F4FF7FB0A80380C3
:10202C00B4F4FF7F44FFFF7FB8F4FF7F48FFFF7FCE
:10203C00C4F4FF7F01000000F8FDFF7F00841480D2
:10204C0090FEFF7F18FFFF7F98FEFF7F01000000CE
:04205C000102000875
:04206000D90100089A
:0C20640001000000100000000024F40047
:0400000508001EEDE4
:00000001FF
